{
  "_format": "hh-sol-artifact-1",
  "contractName": "Allowlister",
  "sourceName": "contracts/Allowlister.sol",
  "abi": [
    {
      "inputs": [
        {
          "internalType": "string",
          "name": "displayName_",
          "type": "string"
        },
        {
          "internalType": "address",
          "name": "lensHub_",
          "type": "address"
        },
        {
          "internalType": "string",
          "name": "projectLensHandle",
          "type": "string"
        },
        {
          "internalType": "uint256",
          "name": "winnersToDraw_",
          "type": "uint256"
        },
        {
          "internalType": "address",
          "name": "randomiser_",
          "type": "address"
        },
        {
          "internalType": "address",
          "name": "winnersModule_",
          "type": "address"
        },
        {
          "internalType": "address",
          "name": "validateModule_",
          "type": "address"
        }
      ],
      "stateMutability": "nonpayable",
      "type": "constructor"
    },
    {
      "anonymous": false,
      "inputs": [
        {
          "indexed": true,
          "internalType": "address",
          "name": "previousOwner",
          "type": "address"
        },
        {
          "indexed": true,
          "internalType": "address",
          "name": "newOwner",
          "type": "address"
        }
      ],
      "name": "OwnershipTransferred",
      "type": "event"
    },
    {
      "anonymous": false,
      "inputs": [
        {
          "indexed": true,
          "internalType": "uint256",
          "name": "profileId",
          "type": "uint256"
        }
      ],
      "name": "RaffleDrawn",
      "type": "event"
    },
    {
      "inputs": [],
      "name": "displayName",
      "outputs": [
        {
          "internalType": "string",
          "name": "",
          "type": "string"
        }
      ],
      "stateMutability": "view",
      "type": "function"
    },
    {
      "inputs": [],
      "name": "getRegisteredIdsLength",
      "outputs": [
        {
          "internalType": "uint256",
          "name": "",
          "type": "uint256"
        }
      ],
      "stateMutability": "view",
      "type": "function"
    },
    {
      "inputs": [],
      "name": "getWinnersLength",
      "outputs": [
        {
          "internalType": "uint256",
          "name": "",
          "type": "uint256"
        }
      ],
      "stateMutability": "view",
      "type": "function"
    },
    {
      "inputs": [],
      "name": "lensHub",
      "outputs": [
        {
          "internalType": "contract ILensHub",
          "name": "",
          "type": "address"
        }
      ],
      "stateMutability": "view",
      "type": "function"
    },
    {
      "inputs": [],
      "name": "owner",
      "outputs": [
        {
          "internalType": "address",
          "name": "",
          "type": "address"
        }
      ],
      "stateMutability": "view",
      "type": "function"
    },
    {
      "inputs": [],
      "name": "raffle",
      "outputs": [],
      "stateMutability": "nonpayable",
      "type": "function"
    },
    {
      "inputs": [],
      "name": "raffleProfileId",
      "outputs": [
        {
          "internalType": "uint256",
          "name": "",
          "type": "uint256"
        }
      ],
      "stateMutability": "view",
      "type": "function"
    },
    {
      "inputs": [],
      "name": "randomiser",
      "outputs": [
        {
          "internalType": "contract Randomiser",
          "name": "",
          "type": "address"
        }
      ],
      "stateMutability": "view",
      "type": "function"
    },
    {
      "inputs": [
        {
          "internalType": "uint256",
          "name": "randomness",
          "type": "uint256"
        }
      ],
      "name": "receiveRandomness",
      "outputs": [],
      "stateMutability": "nonpayable",
      "type": "function"
    },
    {
      "inputs": [],
      "name": "register",
      "outputs": [],
      "stateMutability": "nonpayable",
      "type": "function"
    },
    {
      "inputs": [],
      "name": "renounceOwnership",
      "outputs": [],
      "stateMutability": "nonpayable",
      "type": "function"
    },
    {
      "inputs": [],
      "name": "requestRandomNumber",
      "outputs": [],
      "stateMutability": "nonpayable",
      "type": "function"
    },
    {
      "inputs": [
        {
          "internalType": "address",
          "name": "",
          "type": "address"
        }
      ],
      "name": "s_addressRegistered",
      "outputs": [
        {
          "internalType": "bool",
          "name": "",
          "type": "bool"
        }
      ],
      "stateMutability": "view",
      "type": "function"
    },
    {
      "inputs": [],
      "name": "s_isRaffleFinished",
      "outputs": [
        {
          "internalType": "bool",
          "name": "",
          "type": "bool"
        }
      ],
      "stateMutability": "view",
      "type": "function"
    },
    {
      "inputs": [
        {
          "internalType": "uint256",
          "name": "",
          "type": "uint256"
        }
      ],
      "name": "s_profileIdRegistered",
      "outputs": [
        {
          "internalType": "bool",
          "name": "",
          "type": "bool"
        }
      ],
      "stateMutability": "view",
      "type": "function"
    },
    {
      "inputs": [],
      "name": "s_randomState",
      "outputs": [
        {
          "internalType": "uint256",
          "name": "",
          "type": "uint256"
        }
      ],
      "stateMutability": "view",
      "type": "function"
    },
    {
      "inputs": [
        {
          "internalType": "uint256",
          "name": "",
          "type": "uint256"
        }
      ],
      "name": "s_registeredAddresses",
      "outputs": [
        {
          "internalType": "address",
          "name": "",
          "type": "address"
        }
      ],
      "stateMutability": "view",
      "type": "function"
    },
    {
      "inputs": [
        {
          "internalType": "uint256",
          "name": "",
          "type": "uint256"
        }
      ],
      "name": "s_registeredIds",
      "outputs": [
        {
          "internalType": "uint256",
          "name": "",
          "type": "uint256"
        }
      ],
      "stateMutability": "view",
      "type": "function"
    },
    {
      "inputs": [
        {
          "internalType": "uint256",
          "name": "",
          "type": "uint256"
        }
      ],
      "name": "s_winners",
      "outputs": [
        {
          "internalType": "address",
          "name": "",
          "type": "address"
        }
      ],
      "stateMutability": "view",
      "type": "function"
    },
    {
      "inputs": [
        {
          "internalType": "address",
          "name": "newOwner",
          "type": "address"
        }
      ],
      "name": "transferOwnership",
      "outputs": [],
      "stateMutability": "nonpayable",
      "type": "function"
    },
    {
      "inputs": [],
      "name": "validateModule",
      "outputs": [
        {
          "internalType": "contract IValidateModule",
          "name": "",
          "type": "address"
        }
      ],
      "stateMutability": "view",
      "type": "function"
    },
    {
      "inputs": [],
      "name": "winnersModule",
      "outputs": [
        {
          "internalType": "contract IWinnersModule",
          "name": "",
          "type": "address"
        }
      ],
      "stateMutability": "view",
      "type": "function"
    },
    {
      "inputs": [],
      "name": "winnersToDraw",
      "outputs": [
        {
          "internalType": "uint256",
          "name": "",
          "type": "uint256"
        }
      ],
      "stateMutability": "view",
      "type": "function"
    }
  ],
  "bytecode": "0x6101406040526008805460ff191690553480156200001c57600080fd5b50604051620017e9380380620017e98339810160408190526200003f91620002ef565b6200004a3362000102565b86516200005f9060019060208a019062000152565b506001600160a01b038616608081905260405163107d394560e11b81526320fa728a9062000092908890600401620003ad565b602060405180830381865afa158015620000b0573d6000803e3d6000fd5b505050506040513d601f19601f82011682018060405250810190620000d69190620003e2565b60c05260e0939093526001600160a01b0391821660a05281166101005216610120525062000439915050565b600080546001600160a01b038381166001600160a01b0319831681178455604051919092169283917f8be0079c531659141344cd1fd0a4f28419497f9722a3daafe3b4186f6b6457e09190a35050565b8280546200016090620003fc565b90600052602060002090601f016020900481019282620001845760008555620001cf565b82601f106200019f57805160ff1916838001178555620001cf565b82800160010185558215620001cf579182015b82811115620001cf578251825591602001919060010190620001b2565b50620001dd929150620001e1565b5090565b5b80821115620001dd5760008155600101620001e2565b634e487b7160e01b600052604160045260246000fd5b60005b838110156200022b57818101518382015260200162000211565b838111156200023b576000848401525b50505050565b600082601f8301126200025357600080fd5b81516001600160401b0380821115620002705762000270620001f8565b604051601f8301601f19908116603f011681019082821181831017156200029b576200029b620001f8565b81604052838152866020858801011115620002b557600080fd5b620002c88460208301602089016200020e565b9695505050505050565b80516001600160a01b0381168114620002ea57600080fd5b919050565b600080600080600080600060e0888a0312156200030b57600080fd5b87516001600160401b03808211156200032357600080fd5b620003318b838c0162000241565b98506200034160208b01620002d2565b975060408a01519150808211156200035857600080fd5b50620003678a828b0162000241565b955050606088015193506200037f60808901620002d2565b92506200038f60a08901620002d2565b91506200039f60c08901620002d2565b905092959891949750929550565b6020815260008251806020840152620003ce8160408501602087016200020e565b601f01601f19169190910160400192915050565b600060208284031215620003f557600080fd5b5051919050565b600181811c908216806200041157607f821691505b602082108114156200043357634e487b7160e01b600052602260045260246000fd5b50919050565b60805160a05160c05160e0516101005161012051611313620004d6600039600081816102150152818161061201526106660152600081816102eb015281816109620152610b6c01526000818161029001528181610888015281816108fb0152818161099001526109be015260006103a20152600081816101b4015281816103eb0152610e8e01526000818161037301526104e301526113136000f3fe608060405234801561001057600080fd5b506004361061018d5760003560e01c80638678a7b2116100e3578063af5d48d31161008c578063c155dd8311610066578063c155dd831461039d578063e492d561146103c4578063f2fde38b146103cd57600080fd5b8063af5d48d314610361578063b02cfdc31461036e578063bc8711fd1461039557600080fd5b80639d5b24c0116100bd5780639d5b24c01461030d5780639e4963d114610336578063a7e61d631461035957600080fd5b80638678a7b2146102cd5780638da5cb5b146102d55780639a6809c6146102e657600080fd5b80635646d42a1161014557806367879b751161011f57806367879b751461028b578063715018a6146102b2578063756cd579146102ba57600080fd5b80635646d42a146102105780635bc6a61a14610237578063652f89e51461025857600080fd5b8063336f528a11610176578063336f528a146101af57806333c1420a146101f35780634affb260146101fb57600080fd5b806313cf9054146101925780631aa3a008146101a7575b600080fd5b6101a56101a0366004611133565b6103e0565b005b6101a56104b2565b6101d67f000000000000000000000000000000000000000000000000000000000000000081565b6040516001600160a01b0390911681526020015b60405180910390f35b6101a5610784565b610203610c77565b6040516101ea919061114c565b6101d67f000000000000000000000000000000000000000000000000000000000000000081565b61024a610245366004611133565b610d05565b6040519081526020016101ea565b61027b610266366004611133565b60046020526000908152604090205460ff1681565b60405190151581526020016101ea565b61024a7f000000000000000000000000000000000000000000000000000000000000000081565b6101a5610d26565b6101d66102c8366004611133565b610d8c565b6101a5610db6565b6000546001600160a01b03166101d6565b6101d67f000000000000000000000000000000000000000000000000000000000000000081565b6101d661031b366004611133565b6003602052600090815260409020546001600160a01b031681565b61027b6103443660046111a1565b60056020526000908152604090205460ff1681565b60025461024a565b60085461027b9060ff1681565b6101d67f000000000000000000000000000000000000000000000000000000000000000081565b60065461024a565b61024a7f000000000000000000000000000000000000000000000000000000000000000081565b61024a60075481565b6101a56103db3660046111a1565b610f06565b336001600160a01b037f0000000000000000000000000000000000000000000000000000000000000000161461045d5760405162461bcd60e51b815260206004820152601860248201527f4f6e6c792072616e646f6d69736572206d61792063616c6c000000000000000060448201526064015b60405180910390fd5b600754156104ad5760405162461bcd60e51b815260206004820152601f60248201527f52616e646f6d6e6573732068617320616c7265616479206265656e20736574006044820152606401610454565b600755565b6040517f92254a620000000000000000000000000000000000000000000000000000000081523360048201526000907f00000000000000000000000000000000000000000000000000000000000000006001600160a01b0316906392254a6290602401602060405180830381865afa158015610532573d6000803e3d6000fd5b505050506040513d601f19601f8201168201806040525081019061055691906111d1565b60008181526004602052604090205490915060ff1615801561058857503360009081526005602052604090205460ff16155b6105d45760405162461bcd60e51b815260206004820152601d60248201527f416c7265616479207265676973746572656420666f7220726166666c650000006044820152606401610454565b60008181526004602090815260408083208054600160ff19918216811790925533855260059093529220805490911690911790556001600160a01b037f00000000000000000000000000000000000000000000000000000000000000001615610727576040517fce4d01a3000000000000000000000000000000000000000000000000000000008152600481018290527f00000000000000000000000000000000000000000000000000000000000000006001600160a01b03169063ce4d01a3906024016020604051808303816000875af11580156106b7573d6000803e3d6000fd5b505050506040513d601f19601f820116820180604052508101906106db91906111ea565b6107275760405162461bcd60e51b815260206004820152601960248201527f50726f66696c652076616c69646174696f6e206661696c6564000000000000006044820152606401610454565b60028054600181019091557f405787fa12a823e0f2b7631cc41b3ba8828b3321ca811111fa75cd3aa3bb5ace018190556000908152600360205260409020805473ffffffffffffffffffffffffffffffffffffffff191633179055565b6000546001600160a01b031633146107de5760405162461bcd60e51b815260206004820181905260248201527f4f776e61626c653a2063616c6c6572206973206e6f7420746865206f776e65726044820152606401610454565b60085460ff16156108315760405162461bcd60e51b815260206004820152601760248201527f526166666c6520616c72656164792066696e69736865640000000000000000006044820152606401610454565b6000600280548060200260200160405190810160405280929190818152602001828054801561087f57602002820191906000526020600020905b81548152602001906001019080831161086b575b505050505090507f0000000000000000000000000000000000000000000000000000000000000000815110156108f75760405162461bcd60e51b815260206004820181905260248201527f4e6f7420656e6f756768207265676973746572656420666f7220726166666c656044820152606401610454565b60007f000000000000000000000000000000000000000000000000000000000000000067ffffffffffffffff8111156109325761093261120c565b60405190808252806020026020018201604052801561095b578160200160208202803683370190505b50905060007f00000000000000000000000000000000000000000000000000000000000000006001600160a01b03161515815b7f0000000000000000000000000000000000000000000000000000000000000000811015610c4f5760006109e2827f0000000000000000000000000000000000000000000000000000000000000000611238565b6109ea610fe5565b6109f4919061124f565b9050600060028281548110610a0b57610a0b611271565b9060005260206000200154905080868680610a2590611287565b975081518110610a3757610a37611271565b60209081029190910181019190915260008281526003909152604080822054600680546001810182559084527ff652222313e28459528d920b65115c16c04f3efc82aaedc97be59f3f377c0d3f01805473ffffffffffffffffffffffffffffffffffffffff19166001600160a01b0390921691821790559051909183917fd077b95179d4ec05dad2d0b0c388ae0571bc74266bbadf496608af15775e82419190a28415610bc9576001600160a01b038116610b345760405162461bcd60e51b815260206004820152601460248201527f4d696e7420746f207a65726f20616464726573730000000000000000000000006044820152606401610454565b6040517ffbdd25e40000000000000000000000000000000000000000000000000000000081526001600160a01b0382811660048301527f0000000000000000000000000000000000000000000000000000000000000000169063fbdd25e490602401600060405180830381600087803b158015610bb057600080fd5b505af1158015610bc4573d6000803e3d6000fd5b505050505b8760018951610bd89190611238565b81518110610be857610be8611271565b6020026020010151888481518110610c0257610c02611271565b6020026020010181815250508760018951610c1d9190611238565b81518110610c2d57610c2d611271565b6020026020010160008152505050508080610c4790611287565b91505061098e565b508351610c639060029060208701906110d3565b50506008805460ff19166001179055505050565b60018054610c84906112a2565b80601f0160208091040260200160405190810160405280929190818152602001828054610cb0906112a2565b8015610cfd5780601f10610cd257610100808354040283529160200191610cfd565b820191906000526020600020905b815481529060010190602001808311610ce057829003601f168201915b505050505081565b60028181548110610d1557600080fd5b600091825260209091200154905081565b6000546001600160a01b03163314610d805760405162461bcd60e51b815260206004820181905260248201527f4f776e61626c653a2063616c6c6572206973206e6f7420746865206f776e65726044820152606401610454565b610d8a6000611076565b565b60068181548110610d9c57600080fd5b6000918252602090912001546001600160a01b0316905081565b6000546001600160a01b03163314610e105760405162461bcd60e51b815260206004820181905260248201527f4f776e61626c653a2063616c6c6572206973206e6f7420746865206f776e65726044820152606401610454565b60075415610e605760405162461bcd60e51b815260206004820152601f60248201527f52616e646f6d6e6573732068617320616c7265616479206265656e20736574006044820152606401610454565b6040517f3b6dde130000000000000000000000000000000000000000000000000000000081523060048201527f00000000000000000000000000000000000000000000000000000000000000006001600160a01b031690633b6dde13906024016020604051808303816000875af1158015610edf573d6000803e3d6000fd5b505050506040513d601f19601f82011682018060405250810190610f0391906111d1565b50565b6000546001600160a01b03163314610f605760405162461bcd60e51b815260206004820181905260248201527f4f776e61626c653a2063616c6c6572206973206e6f7420746865206f776e65726044820152606401610454565b6001600160a01b038116610fdc5760405162461bcd60e51b815260206004820152602660248201527f4f776e61626c653a206e6577206f776e657220697320746865207a65726f206160448201527f64647265737300000000000000000000000000000000000000000000000000006064820152608401610454565b610f0381611076565b600754600090806110385760405162461bcd60e51b815260206004820152601c60248201527f496e697469616c6973652072616e646f6d2073656564206669727374000000006044820152606401610454565b8091508044604051602001611057929190918252602082015260400190565b60408051601f1981840301815291905280516020909101206007555090565b600080546001600160a01b0383811673ffffffffffffffffffffffffffffffffffffffff19831681178455604051919092169283917f8be0079c531659141344cd1fd0a4f28419497f9722a3daafe3b4186f6b6457e09190a35050565b82805482825590600052602060002090810192821561110e579160200282015b8281111561110e5782518255916020019190600101906110f3565b5061111a92915061111e565b5090565b5b8082111561111a576000815560010161111f565b60006020828403121561114557600080fd5b5035919050565b600060208083528351808285015260005b818110156111795785810183015185820160400152820161115d565b8181111561118b576000604083870101525b50601f01601f1916929092016040019392505050565b6000602082840312156111b357600080fd5b81356001600160a01b03811681146111ca57600080fd5b9392505050565b6000602082840312156111e357600080fd5b5051919050565b6000602082840312156111fc57600080fd5b815180151581146111ca57600080fd5b634e487b7160e01b600052604160045260246000fd5b634e487b7160e01b600052601160045260246000fd5b60008282101561124a5761124a611222565b500390565b60008261126c57634e487b7160e01b600052601260045260246000fd5b500690565b634e487b7160e01b600052603260045260246000fd5b600060001982141561129b5761129b611222565b5060010190565b600181811c908216806112b657607f821691505b602082108114156112d757634e487b7160e01b600052602260045260246000fd5b5091905056fea2646970667358221220079d8313c30b3c414103f297eee6649bc8477b78cfb4929c4c36b6b83ad27a5e64736f6c634300080a0033",
  "linkReferences": {},
  "deployedLinkReferences": {}
}