{
  "_format": "hh-sol-artifact-1",
  "contractName": "Allowlister",
  "sourceName": "contracts/Allowlister.sol",
  "abi": [
    {
      "inputs": [
        {
          "internalType": "string",
          "name": "displayName_",
          "type": "string"
        },
        {
          "internalType": "address",
          "name": "lensHub_",
          "type": "address"
        },
        {
          "internalType": "string",
          "name": "projectLensHandle",
          "type": "string"
        },
        {
          "internalType": "uint256",
          "name": "winnersToDraw_",
          "type": "uint256"
        },
        {
          "internalType": "address",
          "name": "randomiser_",
          "type": "address"
        },
        {
          "internalType": "address",
          "name": "winnersModule_",
          "type": "address"
        },
        {
          "internalType": "address",
          "name": "validateModule_",
          "type": "address"
        }
      ],
      "stateMutability": "nonpayable",
      "type": "constructor"
    },
    {
      "anonymous": false,
      "inputs": [
        {
          "indexed": true,
          "internalType": "address",
          "name": "previousOwner",
          "type": "address"
        },
        {
          "indexed": true,
          "internalType": "address",
          "name": "newOwner",
          "type": "address"
        }
      ],
      "name": "OwnershipTransferred",
      "type": "event"
    },
    {
      "anonymous": false,
      "inputs": [
        {
          "indexed": true,
          "internalType": "uint256",
          "name": "profileId",
          "type": "uint256"
        }
      ],
      "name": "RaffleDrawn",
      "type": "event"
    },
    {
      "inputs": [],
      "name": "displayName",
      "outputs": [
        {
          "internalType": "string",
          "name": "",
          "type": "string"
        }
      ],
      "stateMutability": "view",
      "type": "function"
    },
    {
      "inputs": [],
      "name": "getRegisteredIdsLength",
      "outputs": [
        {
          "internalType": "uint256",
          "name": "",
          "type": "uint256"
        }
      ],
      "stateMutability": "view",
      "type": "function"
    },
    {
      "inputs": [],
      "name": "getWinnersLength",
      "outputs": [
        {
          "internalType": "uint256",
          "name": "",
          "type": "uint256"
        }
      ],
      "stateMutability": "view",
      "type": "function"
    },
    {
      "inputs": [],
      "name": "lensHub",
      "outputs": [
        {
          "internalType": "contract ILensHub",
          "name": "",
          "type": "address"
        }
      ],
      "stateMutability": "view",
      "type": "function"
    },
    {
      "inputs": [],
      "name": "owner",
      "outputs": [
        {
          "internalType": "address",
          "name": "",
          "type": "address"
        }
      ],
      "stateMutability": "view",
      "type": "function"
    },
    {
      "inputs": [],
      "name": "raffle",
      "outputs": [],
      "stateMutability": "nonpayable",
      "type": "function"
    },
    {
      "inputs": [],
      "name": "raffleProfileId",
      "outputs": [
        {
          "internalType": "uint256",
          "name": "",
          "type": "uint256"
        }
      ],
      "stateMutability": "view",
      "type": "function"
    },
    {
      "inputs": [],
      "name": "randomiser",
      "outputs": [
        {
          "internalType": "contract Randomiser",
          "name": "",
          "type": "address"
        }
      ],
      "stateMutability": "view",
      "type": "function"
    },
    {
      "inputs": [
        {
          "internalType": "uint256",
          "name": "randomness",
          "type": "uint256"
        }
      ],
      "name": "receiveRandomness",
      "outputs": [],
      "stateMutability": "nonpayable",
      "type": "function"
    },
    {
      "inputs": [],
      "name": "register",
      "outputs": [],
      "stateMutability": "nonpayable",
      "type": "function"
    },
    {
      "inputs": [],
      "name": "renounceOwnership",
      "outputs": [],
      "stateMutability": "nonpayable",
      "type": "function"
    },
    {
      "inputs": [
        {
          "internalType": "address",
          "name": "",
          "type": "address"
        }
      ],
      "name": "s_addressRegistered",
      "outputs": [
        {
          "internalType": "bool",
          "name": "",
          "type": "bool"
        }
      ],
      "stateMutability": "view",
      "type": "function"
    },
    {
      "inputs": [],
      "name": "s_isRaffleFinished",
      "outputs": [
        {
          "internalType": "bool",
          "name": "",
          "type": "bool"
        }
      ],
      "stateMutability": "view",
      "type": "function"
    },
    {
      "inputs": [
        {
          "internalType": "uint256",
          "name": "",
          "type": "uint256"
        }
      ],
      "name": "s_profileIdRegistered",
      "outputs": [
        {
          "internalType": "bool",
          "name": "",
          "type": "bool"
        }
      ],
      "stateMutability": "view",
      "type": "function"
    },
    {
      "inputs": [],
      "name": "s_randomState",
      "outputs": [
        {
          "internalType": "uint256",
          "name": "",
          "type": "uint256"
        }
      ],
      "stateMutability": "view",
      "type": "function"
    },
    {
      "inputs": [
        {
          "internalType": "uint256",
          "name": "",
          "type": "uint256"
        }
      ],
      "name": "s_registeredAddresses",
      "outputs": [
        {
          "internalType": "address",
          "name": "",
          "type": "address"
        }
      ],
      "stateMutability": "view",
      "type": "function"
    },
    {
      "inputs": [
        {
          "internalType": "uint256",
          "name": "",
          "type": "uint256"
        }
      ],
      "name": "s_registeredIds",
      "outputs": [
        {
          "internalType": "uint256",
          "name": "",
          "type": "uint256"
        }
      ],
      "stateMutability": "view",
      "type": "function"
    },
    {
      "inputs": [
        {
          "internalType": "uint256",
          "name": "",
          "type": "uint256"
        }
      ],
      "name": "s_winners",
      "outputs": [
        {
          "internalType": "address",
          "name": "",
          "type": "address"
        }
      ],
      "stateMutability": "view",
      "type": "function"
    },
    {
      "inputs": [
        {
          "internalType": "address",
          "name": "newOwner",
          "type": "address"
        }
      ],
      "name": "transferOwnership",
      "outputs": [],
      "stateMutability": "nonpayable",
      "type": "function"
    },
    {
      "inputs": [],
      "name": "validateModule",
      "outputs": [
        {
          "internalType": "contract IValidateModule",
          "name": "",
          "type": "address"
        }
      ],
      "stateMutability": "view",
      "type": "function"
    },
    {
      "inputs": [],
      "name": "winnersModule",
      "outputs": [
        {
          "internalType": "contract IWinnersModule",
          "name": "",
          "type": "address"
        }
      ],
      "stateMutability": "view",
      "type": "function"
    },
    {
      "inputs": [],
      "name": "winnersToDraw",
      "outputs": [
        {
          "internalType": "uint256",
          "name": "",
          "type": "uint256"
        }
      ],
      "stateMutability": "view",
      "type": "function"
    }
  ],
  "bytecode": "0x6101406040526008805460ff191690553480156200001c57600080fd5b5060405162001a8838038062001a888339810160408190526200003f91620002ef565b6200004a3362000102565b86516200005f9060019060208a019062000152565b506001600160a01b038616608081905260405163107d394560e11b81526320fa728a9062000092908890600401620003ad565b602060405180830381865afa158015620000b0573d6000803e3d6000fd5b505050506040513d601f19601f82011682018060405250810190620000d69190620003e2565b60c05260e0939093526001600160a01b0391821660a05281166101005216610120525062000439915050565b600080546001600160a01b038381166001600160a01b0319831681178455604051919092169283917f8be0079c531659141344cd1fd0a4f28419497f9722a3daafe3b4186f6b6457e09190a35050565b8280546200016090620003fc565b90600052602060002090601f016020900481019282620001845760008555620001cf565b82601f106200019f57805160ff1916838001178555620001cf565b82800160010185558215620001cf579182015b82811115620001cf578251825591602001919060010190620001b2565b50620001dd929150620001e1565b5090565b5b80821115620001dd5760008155600101620001e2565b634e487b7160e01b600052604160045260246000fd5b60005b838110156200022b57818101518382015260200162000211565b838111156200023b576000848401525b50505050565b600082601f8301126200025357600080fd5b81516001600160401b0380821115620002705762000270620001f8565b604051601f8301601f19908116603f011681019082821181831017156200029b576200029b620001f8565b81604052838152866020858801011115620002b557600080fd5b620002c88460208301602089016200020e565b9695505050505050565b80516001600160a01b0381168114620002ea57600080fd5b919050565b600080600080600080600060e0888a0312156200030b57600080fd5b87516001600160401b03808211156200032357600080fd5b620003318b838c0162000241565b98506200034160208b01620002d2565b975060408a01519150808211156200035857600080fd5b50620003678a828b0162000241565b955050606088015193506200037f60808901620002d2565b92506200038f60a08901620002d2565b91506200039f60c08901620002d2565b905092959891949750929550565b6020815260008251806020840152620003ce8160408501602087016200020e565b601f01601f19169190910160400192915050565b600060208284031215620003f557600080fd5b5051919050565b600181811c908216806200041157607f821691505b602082108114156200043357634e487b7160e01b600052602260045260246000fd5b50919050565b60805160a05160c05160e05161010051610120516115a4620004e46000396000818161020a015281816105ff01526106530152600081816102d801528181610a860152610c9b01526000818161028501528181610959015281816109cb01528181610abf0152610aed01526000818161038f01526108460152600081816101a9015281816103d80152611048015260008181610360015281816104d0015261086f01526115a46000f3fe608060405234801561001057600080fd5b50600436106101825760003560e01c80638da5cb5b116100d8578063af5d48d31161008c578063c155dd8311610066578063c155dd831461038a578063e492d561146103b1578063f2fde38b146103ba57600080fd5b8063af5d48d31461034e578063b02cfdc31461035b578063bc8711fd1461038257600080fd5b80639d5b24c0116100bd5780639d5b24c0146102fa5780639e4963d114610323578063a7e61d631461034657600080fd5b80638da5cb5b146102c25780639a6809c6146102d357600080fd5b80635646d42a1161013a57806367879b751161011457806367879b7514610280578063715018a6146102a7578063756cd579146102af57600080fd5b80635646d42a146102055780635bc6a61a1461022c578063652f89e51461024d57600080fd5b8063336f528a1161016b578063336f528a146101a457806333c1420a146101e85780634affb260146101f057600080fd5b806313cf9054146101875780631aa3a0081461019c575b600080fd5b61019a61019536600461120b565b6103cd565b005b61019a61049f565b6101cb7f000000000000000000000000000000000000000000000000000000000000000081565b6040516001600160a01b0390911681526020015b60405180910390f35b61019a610771565b6101f8610da9565b6040516101df9190611254565b6101cb7f000000000000000000000000000000000000000000000000000000000000000081565b61023f61023a36600461120b565b610e37565b6040519081526020016101df565b61027061025b36600461120b565b60046020526000908152604090205460ff1681565b60405190151581526020016101df565b61023f7f000000000000000000000000000000000000000000000000000000000000000081565b61019a610e58565b6101cb6102bd36600461120b565b610ebe565b6000546001600160a01b03166101cb565b6101cb7f000000000000000000000000000000000000000000000000000000000000000081565b6101cb61030836600461120b565b6003602052600090815260409020546001600160a01b031681565b61027061033136600461129c565b60056020526000908152604090205460ff1681565b60025461023f565b6008546102709060ff1681565b6101cb7f000000000000000000000000000000000000000000000000000000000000000081565b60065461023f565b61023f7f000000000000000000000000000000000000000000000000000000000000000081565b61023f60075481565b61019a6103c836600461129c565b610ee8565b336001600160a01b037f0000000000000000000000000000000000000000000000000000000000000000161461044a5760405162461bcd60e51b815260206004820152601860248201527f4f6e6c792072616e646f6d69736572206d61792063616c6c000000000000000060448201526064015b60405180910390fd5b6007541561049a5760405162461bcd60e51b815260206004820152601f60248201527f52616e646f6d6e6573732068617320616c7265616479206265656e20736574006044820152606401610441565b600755565b6040517f92254a620000000000000000000000000000000000000000000000000000000081523360048201526000907f00000000000000000000000000000000000000000000000000000000000000006001600160a01b0316906392254a6290602401602060405180830381865afa15801561051f573d6000803e3d6000fd5b505050506040513d601f19601f8201168201806040525081019061054391906112c0565b60008181526004602052604090205490915060ff1615801561057557503360009081526005602052604090205460ff16155b6105c15760405162461bcd60e51b815260206004820152601d60248201527f416c7265616479207265676973746572656420666f7220726166666c650000006044820152606401610441565b60008181526004602090815260408083208054600160ff19918216811790925533855260059093529220805490911690911790556001600160a01b037f00000000000000000000000000000000000000000000000000000000000000001615610714576040517fce4d01a3000000000000000000000000000000000000000000000000000000008152600481018290527f00000000000000000000000000000000000000000000000000000000000000006001600160a01b03169063ce4d01a3906024016020604051808303816000875af11580156106a4573d6000803e3d6000fd5b505050506040513d601f19601f820116820180604052508101906106c891906112d9565b6107145760405162461bcd60e51b815260206004820152601960248201527f50726f66696c652076616c69646174696f6e206661696c6564000000000000006044820152606401610441565b60028054600181019091557f405787fa12a823e0f2b7631cc41b3ba8828b3321ca811111fa75cd3aa3bb5ace018190556000908152600360205260409020805473ffffffffffffffffffffffffffffffffffffffff191633179055565b6000546001600160a01b031633146107cb5760405162461bcd60e51b815260206004820181905260248201527f4f776e61626c653a2063616c6c6572206973206e6f7420746865206f776e65726044820152606401610441565b60085460ff161561081e5760405162461bcd60e51b815260206004820152601760248201527f526166666c6520616c72656164792066696e69736865640000000000000000006044820152606401610441565b6040517ff08f4f640000000000000000000000000000000000000000000000000000000081527f000000000000000000000000000000000000000000000000000000000000000060048201526000907f00000000000000000000000000000000000000000000000000000000000000006001600160a01b03169063f08f4f6490602401600060405180830381865afa1580156108be573d6000803e3d6000fd5b505050506040513d6000823e601f3d908101601f191682016040526108e691908101906113d2565b90506000816040015190506000816001600160a01b03166318160ddd6040518163ffffffff1660e01b8152600401602060405180830381865afa158015610931573d6000803e3d6000fd5b505050506040513d601f19601f8201168201806040525081019061095591906112c0565b90507f00000000000000000000000000000000000000000000000000000000000000008110156109c75760405162461bcd60e51b815260206004820152601c60248201527f4e6f7420656e6f75676820737570706c7920666f7220726166666c65000000006044820152606401610441565b60007f000000000000000000000000000000000000000000000000000000000000000067ffffffffffffffff811115610a0257610a026112fb565b604051908082528060200260200182016040528015610a2b578160200160208202803683370190505b5090506000806002805480602002602001604051908101604052809291908181526020018280548015610a7d57602002820191906000526020600020905b815481526020019060010190808311610a69575b509394505050507f00000000000000000000000000000000000000000000000000000000000000006001600160a01b031615159050610aba610fca565b60005b7f0000000000000000000000000000000000000000000000000000000000000000811015610d7e576000610b11827f00000000000000000000000000000000000000000000000000000000000000006114c9565b610b196110bd565b610b2391906114e0565b9050600060028281548110610b3a57610b3a611502565b9060005260206000200154905080878780610b5490611518565b985081518110610b6657610b66611502565b60209081029190910181019190915260008281526003909152604080822054600680546001810182559084527ff652222313e28459528d920b65115c16c04f3efc82aaedc97be59f3f377c0d3f01805473ffffffffffffffffffffffffffffffffffffffff19166001600160a01b0390921691821790559051909183917fd077b95179d4ec05dad2d0b0c388ae0571bc74266bbadf496608af15775e82419190a28415610cf8576001600160a01b038116610c635760405162461bcd60e51b815260206004820152601460248201527f4d696e7420746f207a65726f20616464726573730000000000000000000000006044820152606401610441565b6040517ffbdd25e40000000000000000000000000000000000000000000000000000000081526001600160a01b0382811660048301527f0000000000000000000000000000000000000000000000000000000000000000169063fbdd25e490602401600060405180830381600087803b158015610cdf57600080fd5b505af1158015610cf3573d6000803e3d6000fd5b505050505b8560018751610d0791906114c9565b81518110610d1757610d17611502565b6020026020010151868481518110610d3157610d31611502565b6020026020010181815250508560018751610d4c91906114c9565b81518110610d5c57610d5c611502565b6020026020010160008152505050508080610d7690611518565b915050610abd565b508151610d929060029060208501906111ab565b50506008805460ff19166001179055505050505050565b60018054610db690611533565b80601f0160208091040260200160405190810160405280929190818152602001828054610de290611533565b8015610e2f5780601f10610e0457610100808354040283529160200191610e2f565b820191906000526020600020905b815481529060010190602001808311610e1257829003601f168201915b505050505081565b60028181548110610e4757600080fd5b600091825260209091200154905081565b6000546001600160a01b03163314610eb25760405162461bcd60e51b815260206004820181905260248201527f4f776e61626c653a2063616c6c6572206973206e6f7420746865206f776e65726044820152606401610441565b610ebc600061114e565b565b60068181548110610ece57600080fd5b6000918252602090912001546001600160a01b0316905081565b6000546001600160a01b03163314610f425760405162461bcd60e51b815260206004820181905260248201527f4f776e61626c653a2063616c6c6572206973206e6f7420746865206f776e65726044820152606401610441565b6001600160a01b038116610fbe5760405162461bcd60e51b815260206004820152602660248201527f4f776e61626c653a206e6577206f776e657220697320746865207a65726f206160448201527f64647265737300000000000000000000000000000000000000000000000000006064820152608401610441565b610fc78161114e565b50565b6007541561101a5760405162461bcd60e51b815260206004820152601f60248201527f52616e646f6d6e6573732068617320616c7265616479206265656e20736574006044820152606401610441565b6040517f3b6dde130000000000000000000000000000000000000000000000000000000081523060048201527f00000000000000000000000000000000000000000000000000000000000000006001600160a01b031690633b6dde13906024016020604051808303816000875af1158015611099573d6000803e3d6000fd5b505050506040513d601f19601f82011682018060405250810190610fc791906112c0565b600754600090806111105760405162461bcd60e51b815260206004820152601c60248201527f496e697469616c6973652072616e646f6d2073656564206669727374000000006044820152606401610441565b809150804460405160200161112f929190918252602082015260400190565b60408051601f1981840301815291905280516020909101206007555090565b600080546001600160a01b0383811673ffffffffffffffffffffffffffffffffffffffff19831681178455604051919092169283917f8be0079c531659141344cd1fd0a4f28419497f9722a3daafe3b4186f6b6457e09190a35050565b8280548282559060005260206000209081019282156111e6579160200282015b828111156111e65782518255916020019190600101906111cb565b506111f29291506111f6565b5090565b5b808211156111f257600081556001016111f7565b60006020828403121561121d57600080fd5b5035919050565b60005b8381101561123f578181015183820152602001611227565b8381111561124e576000848401525b50505050565b6020815260008251806020840152611273816040850160208701611224565b601f01601f19169190910160400192915050565b6001600160a01b0381168114610fc757600080fd5b6000602082840312156112ae57600080fd5b81356112b981611287565b9392505050565b6000602082840312156112d257600080fd5b5051919050565b6000602082840312156112eb57600080fd5b815180151581146112b957600080fd5b634e487b7160e01b600052604160045260246000fd5b60405160c0810167ffffffffffffffff81118282101715611334576113346112fb565b60405290565b805161134581611287565b919050565b600082601f83011261135b57600080fd5b815167ffffffffffffffff80821115611376576113766112fb565b604051601f8301601f19908116603f0116810190828211818310171561139e5761139e6112fb565b816040528381528660208588010111156113b757600080fd5b6113c8846020830160208901611224565b9695505050505050565b6000602082840312156113e457600080fd5b815167ffffffffffffffff808211156113fc57600080fd5b9083019060c0828603121561141057600080fd5b611418611311565b825181526114286020840161133a565b60208201526114396040840161133a565b604082015260608301518281111561145057600080fd5b61145c8782860161134a565b60608301525060808301518281111561147457600080fd5b6114808782860161134a565b60808301525060a08301518281111561149857600080fd5b6114a48782860161134a565b60a08301525095945050505050565b634e487b7160e01b600052601160045260246000fd5b6000828210156114db576114db6114b3565b500390565b6000826114fd57634e487b7160e01b600052601260045260246000fd5b500690565b634e487b7160e01b600052603260045260246000fd5b600060001982141561152c5761152c6114b3565b5060010190565b600181811c9082168061154757607f821691505b6020821081141561156857634e487b7160e01b600052602260045260246000fd5b5091905056fea2646970667358221220caf601acc27cd02c4ef48ed6af1e979fa981e137381f3593358e3259cd10e4b564736f6c634300080a0033",
  "linkReferences": {},
  "deployedLinkReferences": {}
}